{
  "contractName": "PartyJacuzzis",
  "abi": [
    {
      "inputs": [
        {
          "internalType": "contract YAYToken",
          "name": "_yay",
          "type": "address"
        }
      ],
      "stateMutability": "nonpayable",
      "type": "constructor"
    },
    {
      "anonymous": false,
      "inputs": [
        {
          "indexed": true,
          "internalType": "address",
          "name": "owner",
          "type": "address"
        },
        {
          "indexed": true,
          "internalType": "address",
          "name": "spender",
          "type": "address"
        },
        {
          "indexed": false,
          "internalType": "uint256",
          "name": "value",
          "type": "uint256"
        }
      ],
      "name": "Approval",
      "type": "event"
    },
    {
      "anonymous": false,
      "inputs": [
        {
          "indexed": true,
          "internalType": "address",
          "name": "previousOwner",
          "type": "address"
        },
        {
          "indexed": true,
          "internalType": "address",
          "name": "newOwner",
          "type": "address"
        }
      ],
      "name": "OwnershipTransferred",
      "type": "event"
    },
    {
      "anonymous": false,
      "inputs": [
        {
          "indexed": true,
          "internalType": "address",
          "name": "from",
          "type": "address"
        },
        {
          "indexed": true,
          "internalType": "address",
          "name": "to",
          "type": "address"
        },
        {
          "indexed": false,
          "internalType": "uint256",
          "name": "value",
          "type": "uint256"
        }
      ],
      "name": "Transfer",
      "type": "event"
    },
    {
      "inputs": [],
      "name": "LOCK_PERIOD",
      "outputs": [
        {
          "internalType": "uint256",
          "name": "",
          "type": "uint256"
        }
      ],
      "stateMutability": "view",
      "type": "function",
      "constant": true
    },
    {
      "inputs": [],
      "name": "MAX_EARLY_WITHDRAW_FEE",
      "outputs": [
        {
          "internalType": "uint256",
          "name": "",
          "type": "uint256"
        }
      ],
      "stateMutability": "view",
      "type": "function",
      "constant": true
    },
    {
      "inputs": [
        {
          "internalType": "address",
          "name": "owner",
          "type": "address"
        },
        {
          "internalType": "address",
          "name": "spender",
          "type": "address"
        }
      ],
      "name": "allowance",
      "outputs": [
        {
          "internalType": "uint256",
          "name": "",
          "type": "uint256"
        }
      ],
      "stateMutability": "view",
      "type": "function",
      "constant": true
    },
    {
      "inputs": [
        {
          "internalType": "address",
          "name": "spender",
          "type": "address"
        },
        {
          "internalType": "uint256",
          "name": "amount",
          "type": "uint256"
        }
      ],
      "name": "approve",
      "outputs": [
        {
          "internalType": "bool",
          "name": "",
          "type": "bool"
        }
      ],
      "stateMutability": "nonpayable",
      "type": "function"
    },
    {
      "inputs": [
        {
          "internalType": "address",
          "name": "account",
          "type": "address"
        }
      ],
      "name": "balanceOf",
      "outputs": [
        {
          "internalType": "uint256",
          "name": "",
          "type": "uint256"
        }
      ],
      "stateMutability": "view",
      "type": "function",
      "constant": true
    },
    {
      "inputs": [],
      "name": "decimals",
      "outputs": [
        {
          "internalType": "uint8",
          "name": "",
          "type": "uint8"
        }
      ],
      "stateMutability": "view",
      "type": "function",
      "constant": true
    },
    {
      "inputs": [
        {
          "internalType": "address",
          "name": "spender",
          "type": "address"
        },
        {
          "internalType": "uint256",
          "name": "subtractedValue",
          "type": "uint256"
        }
      ],
      "name": "decreaseAllowance",
      "outputs": [
        {
          "internalType": "bool",
          "name": "",
          "type": "bool"
        }
      ],
      "stateMutability": "nonpayable",
      "type": "function"
    },
    {
      "inputs": [],
      "name": "earlyWithdrawalFee",
      "outputs": [
        {
          "internalType": "uint256",
          "name": "",
          "type": "uint256"
        }
      ],
      "stateMutability": "view",
      "type": "function",
      "constant": true
    },
    {
      "inputs": [
        {
          "internalType": "address",
          "name": "spender",
          "type": "address"
        },
        {
          "internalType": "uint256",
          "name": "addedValue",
          "type": "uint256"
        }
      ],
      "name": "increaseAllowance",
      "outputs": [
        {
          "internalType": "bool",
          "name": "",
          "type": "bool"
        }
      ],
      "stateMutability": "nonpayable",
      "type": "function"
    },
    {
      "inputs": [],
      "name": "name",
      "outputs": [
        {
          "internalType": "string",
          "name": "",
          "type": "string"
        }
      ],
      "stateMutability": "view",
      "type": "function",
      "constant": true
    },
    {
      "inputs": [],
      "name": "owner",
      "outputs": [
        {
          "internalType": "address",
          "name": "",
          "type": "address"
        }
      ],
      "stateMutability": "view",
      "type": "function",
      "constant": true
    },
    {
      "inputs": [],
      "name": "renounceOwnership",
      "outputs": [],
      "stateMutability": "nonpayable",
      "type": "function"
    },
    {
      "inputs": [],
      "name": "symbol",
      "outputs": [
        {
          "internalType": "string",
          "name": "",
          "type": "string"
        }
      ],
      "stateMutability": "view",
      "type": "function",
      "constant": true
    },
    {
      "inputs": [],
      "name": "totalSupply",
      "outputs": [
        {
          "internalType": "uint256",
          "name": "",
          "type": "uint256"
        }
      ],
      "stateMutability": "view",
      "type": "function",
      "constant": true
    },
    {
      "inputs": [
        {
          "internalType": "address",
          "name": "recipient",
          "type": "address"
        },
        {
          "internalType": "uint256",
          "name": "amount",
          "type": "uint256"
        }
      ],
      "name": "transfer",
      "outputs": [
        {
          "internalType": "bool",
          "name": "",
          "type": "bool"
        }
      ],
      "stateMutability": "nonpayable",
      "type": "function"
    },
    {
      "inputs": [
        {
          "internalType": "address",
          "name": "sender",
          "type": "address"
        },
        {
          "internalType": "address",
          "name": "recipient",
          "type": "address"
        },
        {
          "internalType": "uint256",
          "name": "amount",
          "type": "uint256"
        }
      ],
      "name": "transferFrom",
      "outputs": [
        {
          "internalType": "bool",
          "name": "",
          "type": "bool"
        }
      ],
      "stateMutability": "nonpayable",
      "type": "function"
    },
    {
      "inputs": [
        {
          "internalType": "address",
          "name": "newOwner",
          "type": "address"
        }
      ],
      "name": "transferOwnership",
      "outputs": [],
      "stateMutability": "nonpayable",
      "type": "function"
    },
    {
      "inputs": [],
      "name": "unlockDate",
      "outputs": [
        {
          "internalType": "uint256",
          "name": "",
          "type": "uint256"
        }
      ],
      "stateMutability": "view",
      "type": "function",
      "constant": true
    },
    {
      "inputs": [],
      "name": "yay",
      "outputs": [
        {
          "internalType": "contract YAYToken",
          "name": "",
          "type": "address"
        }
      ],
      "stateMutability": "view",
      "type": "function",
      "constant": true
    },
    {
      "inputs": [
        {
          "internalType": "uint256",
          "name": "_amount",
          "type": "uint256"
        }
      ],
      "name": "enter",
      "outputs": [],
      "stateMutability": "nonpayable",
      "type": "function"
    },
    {
      "inputs": [
        {
          "internalType": "uint256",
          "name": "_share",
          "type": "uint256"
        }
      ],
      "name": "leave",
      "outputs": [],
      "stateMutability": "nonpayable",
      "type": "function"
    },
    {
      "inputs": [
        {
          "internalType": "uint256",
          "name": "_earlyWithdrawalFee",
          "type": "uint256"
        }
      ],
      "name": "setEarlyWithdrawalFee",
      "outputs": [],
      "stateMutability": "nonpayable",
      "type": "function"
    }
  ],
  "bytecode": "0x60806040526109c46007553480156200001757600080fd5b5060405162001773380380620017738339810160408190526200003a9162000203565b604080518082018252600d81526c50617274794a6163757a7a697360981b6020808301918252835180850190945260048452637859415960e01b9084015281519192916200008b916003916200015d565b508051620000a19060049060208401906200015d565b5050506000620000b66200014460201b60201c565b600580546001600160a01b0319166001600160a01b038316908117909155604051919250906000907f8be0079c531659141344cd1fd0a4f28419497f9722a3daafe3b4186f6b6457e0908290a350600680546001600160a01b0319166001600160a01b0383161790556200013a4262ed4e0062000148602090811b62000ae517901c565b600855506200028e565b3390565b60006200015682846200022c565b9392505050565b8280546200016b9062000251565b90600052602060002090601f0160209004810192826200018f5760008555620001da565b82601f10620001aa57805160ff1916838001178555620001da565b82800160010185558215620001da579182015b82811115620001da578251825591602001919060010190620001bd565b50620001e8929150620001ec565b5090565b5b80821115620001e85760008155600101620001ed565b60006020828403121562000215578081fd5b81516001600160a01b038116811462000156578182fd5b600082198211156200024c57634e487b7160e01b81526011600452602481fd5b500190565b6002810460018216806200026657607f821691505b602082108114156200028857634e487b7160e01b600052602260045260246000fd5b50919050565b6114d5806200029e6000396000f3fe608060405234801561001057600080fd5b50600436106101425760003560e01c8063715018a6116100b8578063a9059cbb1161007c578063a9059cbb14610260578063d569bdeb14610273578063dd62ed3e1461027b578063ddc16b311461028e578063f2fde38b14610296578063f826ed2e146102a957610142565b8063715018a6146102155780638da5cb5b1461021d57806395d89b4114610232578063a457c2d71461023a578063a59f3e0c1461024d57610142565b806323b872dd1161010a57806323b872dd146101aa578063313ce567146101bd57806339509351146101d257806367dfd4c9146101e557806369ac5721146101fa57806370a082311461020257610142565b806306fdde0314610147578063095ea7b31461016557806316330d401461018557806318160ddd1461019a5780631820cabb146101a2575b600080fd5b61014f6102bc565b60405161015c9190611015565b60405180910390f35b610178610173366004610f40565b61034e565b60405161015c919061100a565b61018d61036b565b60405161015c91906113c9565b61018d610371565b61018d610377565b6101786101b8366004610f05565b61037e565b6101c561041e565b60405161015c91906113d2565b6101786101e0366004610f40565b610423565b6101f86101f3366004610f89565b610472565b005b61018d6106cb565b61018d610210366004610eb9565b6106d1565b6101f86106f0565b610225610779565b60405161015c9190610fb9565b61014f610788565b610178610248366004610f40565b610797565b6101f861025b366004610f89565b610812565b61017861026e366004610f40565b61096a565b61022561097e565b61018d610289366004610ed3565b61098d565b61018d6109b8565b6101f86102a4366004610eb9565b6109be565b6101f86102b7366004610f89565b610a7f565b6060600380546102cb9061144e565b80601f01602080910402602001604051908101604052809291908181526020018280546102f79061144e565b80156103445780601f1061031957610100808354040283529160200191610344565b820191906000526020600020905b81548152906001019060200180831161032757829003601f168201915b5050505050905090565b600061036261035b610af8565b8484610afc565b50600192915050565b60075481565b60025490565b62ed4e0081565b600061038b848484610bb0565b6001600160a01b0384166000908152600160205260408120816103ac610af8565b6001600160a01b03166001600160a01b03168152602001908152602001600020549050828110156103f85760405162461bcd60e51b81526004016103ef906111bb565b60405180910390fd5b61041385610404610af8565b61040e8685611437565b610afc565b506001949350505050565b601290565b6000610362610430610af8565b84846001600061043e610af8565b6001600160a01b03908116825260208083019390935260409182016000908120918b168152925290205461040e91906113e0565b600061047c610371565b6006546040516370a0823160e01b8152919250600091610517918491610511916001600160a01b0316906370a08231906104ba903090600401610fb9565b60206040518083038186803b1580156104d257600080fd5b505afa1580156104e6573d6000803e3d6000fd5b505050506040513d601f19601f8201168201806040525081019061050a9190610fa1565b8690610cd8565b90610ce4565b90506105233384610cf0565b60085442106105b65760065460405163a9059cbb60e01b81526001600160a01b039091169063a9059cbb9061055e9033908590600401610ff1565b602060405180830381600087803b15801561057857600080fd5b505af115801561058c573d6000803e3d6000fd5b505050506040513d601f19601f820116820180604052508101906105b09190610f69565b506106c6565b60006105d361271061051160075485610cd890919063ffffffff16565b6006549091506001600160a01b031663a9059cbb336105f28585610dd6565b6040518363ffffffff1660e01b815260040161060f929190610ff1565b602060405180830381600087803b15801561062957600080fd5b505af115801561063d573d6000803e3d6000fd5b505050506040513d601f19601f820116820180604052508101906106619190610f69565b50600654604051636ebfc96960e11b81526001600160a01b039091169063dd7f92d2906106929084906004016113c9565b600060405180830381600087803b1580156106ac57600080fd5b505af11580156106c0573d6000803e3d6000fd5b50505050505b505050565b60085481565b6001600160a01b0381166000908152602081905260409020545b919050565b6106f8610af8565b6001600160a01b0316610709610779565b6001600160a01b03161461072f5760405162461bcd60e51b81526004016103ef90611203565b6005546040516000916001600160a01b0316907f8be0079c531659141344cd1fd0a4f28419497f9722a3daafe3b4186f6b6457e0908390a3600580546001600160a01b0319169055565b6005546001600160a01b031690565b6060600480546102cb9061144e565b600080600160006107a6610af8565b6001600160a01b03908116825260208083019390935260409182016000908120918816815292529020549050828110156107f25760405162461bcd60e51b81526004016103ef9061134d565b6108086107fd610af8565b8561040e8685611437565b5060019392505050565b6006546040516370a0823160e01b81526000916001600160a01b0316906370a0823190610843903090600401610fb9565b60206040518083038186803b15801561085b57600080fd5b505afa15801561086f573d6000803e3d6000fd5b505050506040513d601f19601f820116820180604052508101906108939190610fa1565b9050600061089f610371565b90508015806108ac575081155b156108c0576108bb3384610de2565b6108de565b60006108d0836105118685610cd8565b90506108dc3382610de2565b505b6006546040516323b872dd60e01b81526001600160a01b03909116906323b872dd9061091290339030908890600401610fcd565b602060405180830381600087803b15801561092c57600080fd5b505af1158015610940573d6000803e3d6000fd5b505050506040513d601f19601f820116820180604052508101906109649190610f69565b50505050565b6000610362610977610af8565b8484610bb0565b6006546001600160a01b031681565b6001600160a01b03918216600090815260016020908152604080832093909416825291909152205490565b61271081565b6109c6610af8565b6001600160a01b03166109d7610779565b6001600160a01b0316146109fd5760405162461bcd60e51b81526004016103ef90611203565b6001600160a01b038116610a235760405162461bcd60e51b81526004016103ef906110ed565b6005546040516001600160a01b038084169216907f8be0079c531659141344cd1fd0a4f28419497f9722a3daafe3b4186f6b6457e090600090a3600580546001600160a01b0319166001600160a01b0392909216919091179055565b610a87610af8565b6001600160a01b0316610a98610779565b6001600160a01b031614610abe5760405162461bcd60e51b81526004016103ef90611203565b612710811115610ae05760405162461bcd60e51b81526004016103ef90611238565b600755565b6000610af182846113e0565b9392505050565b3390565b6001600160a01b038316610b225760405162461bcd60e51b81526004016103ef90611309565b6001600160a01b038216610b485760405162461bcd60e51b81526004016103ef90611133565b6001600160a01b0380841660008181526001602090815260408083209487168084529490915290819020849055517f8c5be1e5ebec7d5bd14f71427d1e84f3dd0314c0f7b2291e5b200ac8c7c3b92590610ba39085906113c9565b60405180910390a3505050565b6001600160a01b038316610bd65760405162461bcd60e51b81526004016103ef906112c4565b6001600160a01b038216610bfc5760405162461bcd60e51b81526004016103ef90611068565b610c078383836106c6565b6001600160a01b03831660009081526020819052604090205481811015610c405760405162461bcd60e51b81526004016103ef90611175565b610c4a8282611437565b6001600160a01b038086166000908152602081905260408082209390935590851681529081208054849290610c809084906113e0565b92505081905550826001600160a01b0316846001600160a01b03167fddf252ad1be2c89b69c2b068fc378daa952ba7f163c4a11628f55a4df523b3ef84604051610cca91906113c9565b60405180910390a350505050565b6000610af18284611418565b6000610af182846113f8565b6001600160a01b038216610d165760405162461bcd60e51b81526004016103ef90611283565b610d22826000836106c6565b6001600160a01b03821660009081526020819052604090205481811015610d5b5760405162461bcd60e51b81526004016103ef906110ab565b610d658282611437565b6001600160a01b03841660009081526020819052604081209190915560028054849290610d93908490611437565b90915550506040516000906001600160a01b038516907fddf252ad1be2c89b69c2b068fc378daa952ba7f163c4a11628f55a4df523b3ef90610ba39086906113c9565b6000610af18284611437565b6001600160a01b038216610e085760405162461bcd60e51b81526004016103ef90611392565b610e14600083836106c6565b8060026000828254610e2691906113e0565b90915550506001600160a01b03821660009081526020819052604081208054839290610e539084906113e0565b90915550506040516001600160a01b038316906000907fddf252ad1be2c89b69c2b068fc378daa952ba7f163c4a11628f55a4df523b3ef90610e969085906113c9565b60405180910390a35050565b80356001600160a01b03811681146106eb57600080fd5b600060208284031215610eca578081fd5b610af182610ea2565b60008060408385031215610ee5578081fd5b610eee83610ea2565b9150610efc60208401610ea2565b90509250929050565b600080600060608486031215610f19578081fd5b610f2284610ea2565b9250610f3060208501610ea2565b9150604084013590509250925092565b60008060408385031215610f52578182fd5b610f5b83610ea2565b946020939093013593505050565b600060208284031215610f7a578081fd5b81518015158114610af1578182fd5b600060208284031215610f9a578081fd5b5035919050565b600060208284031215610fb2578081fd5b5051919050565b6001600160a01b0391909116815260200190565b6001600160a01b039384168152919092166020820152604081019190915260600190565b6001600160a01b03929092168252602082015260400190565b901515815260200190565b6000602080835283518082850152825b8181101561104157858101830151858201604001528201611025565b818111156110525783604083870101525b50601f01601f1916929092016040019392505050565b60208082526023908201527f45524332303a207472616e7366657220746f20746865207a65726f206164647260408201526265737360e81b606082015260800190565b60208082526022908201527f45524332303a206275726e20616d6f756e7420657863656564732062616c616e604082015261636560f01b606082015260800190565b60208082526026908201527f4f776e61626c653a206e6577206f776e657220697320746865207a65726f206160408201526564647265737360d01b606082015260800190565b60208082526022908201527f45524332303a20617070726f766520746f20746865207a65726f206164647265604082015261737360f01b606082015260800190565b60208082526026908201527f45524332303a207472616e7366657220616d6f756e7420657863656564732062604082015265616c616e636560d01b606082015260800190565b60208082526028908201527f45524332303a207472616e7366657220616d6f756e74206578636565647320616040820152676c6c6f77616e636560c01b606082015260800190565b6020808252818101527f4f776e61626c653a2063616c6c6572206973206e6f7420746865206f776e6572604082015260600190565b6020808252602b908201527f43616e27742068617665207769746864726177616c206665652067726561746560408201526a72207468616e203130302560a81b606082015260800190565b60208082526021908201527f45524332303a206275726e2066726f6d20746865207a65726f206164647265736040820152607360f81b606082015260800190565b60208082526025908201527f45524332303a207472616e736665722066726f6d20746865207a65726f206164604082015264647265737360d81b606082015260800190565b60208082526024908201527f45524332303a20617070726f76652066726f6d20746865207a65726f206164646040820152637265737360e01b606082015260800190565b60208082526025908201527f45524332303a2064656372656173656420616c6c6f77616e63652062656c6f77604082015264207a65726f60d81b606082015260800190565b6020808252601f908201527f45524332303a206d696e7420746f20746865207a65726f206164647265737300604082015260600190565b90815260200190565b60ff91909116815260200190565b600082198211156113f3576113f3611489565b500190565b60008261141357634e487b7160e01b81526012600452602481fd5b500490565b600081600019048311821515161561143257611432611489565b500290565b60008282101561144957611449611489565b500390565b60028104600182168061146257607f821691505b6020821081141561148357634e487b7160e01b600052602260045260246000fd5b50919050565b634e487b7160e01b600052601160045260246000fdfea2646970667358221220d4ec5bfc3ffbe1234fed6427465293461b0f13336ab056f8fb22d6c6c81f75ca64736f6c63430008000033",
  "immutableReferences": {},
  "source": "import \"@openzeppelin/contracts/utils/math/SafeMath.sol\";\nimport \"@openzeppelin/contracts/token/ERC20/ERC20.sol\";\nimport \"@openzeppelin/contracts/access/Ownable.sol\";\nimport \"./YAYToken.sol\";\n\npragma solidity >=0.6.12;\n\n// PartyJacuzzis is the coolest bar in town. You come in with some YAY, and leave\n// with more! The longer you stay, the more YAY you get.\n//\n// This contract handles swapping to and from xYAY, PartFinance's staking token.\ncontract PartyJacuzzis is ERC20(\"PartyJacuzzis\", \"xYAY\"), Ownable {\n    using SafeMath for uint256;\n    YAYToken public yay;\n\n    uint256 public constant MAX_EARLY_WITHDRAW_FEE = 10000;\n    // This is a variable that can be changed by the owner\n    uint256 public earlyWithdrawalFee = 2500;\n\n    // Start time of when this contract was created\n    uint256 public unlockDate;\n    uint256 public constant LOCK_PERIOD = 180 days;\n\n    // Make sure that the YAYToken contract we are passing in here\n    // has the function `burnOwnTokens` which will burn tokens of your own\n    // address.\n    constructor(YAYToken _yay) public {\n        yay = _yay;\n        unlockDate = block.timestamp.add(LOCK_PERIOD);\n    }\n\n    // Enter the bar. Pay some YAY. Earn some shares.\n    // Locks YAY and mints xYay\n    function enter(uint256 _amount) public {\n        // Gets the amount of YAY locked in the contract\n        uint256 totalYay = yay.balanceOf(address(this));\n        // Gets the amount of xYAY in existence\n        uint256 totalShares = totalSupply();\n        // If no xYAY exists, mint it 1:1 to the amount put in\n        if (totalShares == 0 || totalYay == 0) {\n            _mint(msg.sender, _amount);\n        }\n        // Calculate and mint the amount of xYAY the YAY is worth.\n        // The ratio will change overtime, as xYAY is burned/minted and YAY\n        // deposited + gained from fees / withdrawn.\n        else {\n            uint256 what = _amount.mul(totalShares).div(totalYay);\n            _mint(msg.sender, what);\n        }\n        // Lock the YAY in the contract\n        yay.transferFrom(msg.sender, address(this), _amount);\n    }\n\n    // Leave the bar. Claim back your YAY.\n    // Unclocks the staked + gained Pefi and burns xYay\n    function leave(uint256 _share) public {\n        // Gets the amount of xYay in existence\n        uint256 totalShares = totalSupply();\n        // Calculates the amount of Pefi the xYay is worth\n        uint256 what =\n            _share.mul(yay.balanceOf(address(this))).div(totalShares);\n        _burn(msg.sender, _share);\n        if (block.timestamp >= unlockDate) {\n            yay.transfer(msg.sender, what);\n        } else {\n            uint256 toBurn =\n                what.mul(earlyWithdrawalFee).div(MAX_EARLY_WITHDRAW_FEE);\n            // Send the person's YAY to their address\n            yay.transfer(msg.sender, what.sub(toBurn));\n            // BURN the YAY in this address\n            yay.burnOwnTokens(toBurn);\n        }\n    }\n\n    // Change the early withdrawal amount\n    function setEarlyWithdrawalFee(uint256 _earlyWithdrawalFee)\n        external\n        onlyOwner\n    {\n        require(\n            _earlyWithdrawalFee <= MAX_EARLY_WITHDRAW_FEE,\n            \"Can't have withdrawal fee greater than 100%\"\n        );\n        earlyWithdrawalFee = _earlyWithdrawalFee;\n    }\n}\n",
  "sourcePath": "/home/pedro/Documents/projects/avalabs/pefi/penguin-contracts-deployed/contracts/PartyJacuzzis.sol",
  "compiler": {
    "name": "solc",
    "version": "0.8.0+commit.c7dfd78e.Emscripten.clang"
  },
  "schemaVersion": "3.4.1",
  "updatedAt": "2021-06-24T22:13:08.030Z",
  "networkType": "ethereum",
  "devdoc": {
    "kind": "dev",
    "methods": {
      "allowance(address,address)": {
        "details": "See {IERC20-allowance}."
      },
      "approve(address,uint256)": {
        "details": "See {IERC20-approve}. Requirements: - `spender` cannot be the zero address."
      },
      "balanceOf(address)": {
        "details": "See {IERC20-balanceOf}."
      },
      "decimals()": {
        "details": "Returns the number of decimals used to get its user representation. For example, if `decimals` equals `2`, a balance of `505` tokens should be displayed to a user as `5,05` (`505 / 10 ** 2`). Tokens usually opt for a value of 18, imitating the relationship between Ether and Wei. This is the value {ERC20} uses, unless this function is overridden; NOTE: This information is only used for _display_ purposes: it in no way affects any of the arithmetic of the contract, including {IERC20-balanceOf} and {IERC20-transfer}."
      },
      "decreaseAllowance(address,uint256)": {
        "details": "Atomically decreases the allowance granted to `spender` by the caller. This is an alternative to {approve} that can be used as a mitigation for problems described in {IERC20-approve}. Emits an {Approval} event indicating the updated allowance. Requirements: - `spender` cannot be the zero address. - `spender` must have allowance for the caller of at least `subtractedValue`."
      },
      "increaseAllowance(address,uint256)": {
        "details": "Atomically increases the allowance granted to `spender` by the caller. This is an alternative to {approve} that can be used as a mitigation for problems described in {IERC20-approve}. Emits an {Approval} event indicating the updated allowance. Requirements: - `spender` cannot be the zero address."
      },
      "name()": {
        "details": "Returns the name of the token."
      },
      "owner()": {
        "details": "Returns the address of the current owner."
      },
      "renounceOwnership()": {
        "details": "Leaves the contract without owner. It will not be possible to call `onlyOwner` functions anymore. Can only be called by the current owner. NOTE: Renouncing ownership will leave the contract without an owner, thereby removing any functionality that is only available to the owner."
      },
      "symbol()": {
        "details": "Returns the symbol of the token, usually a shorter version of the name."
      },
      "totalSupply()": {
        "details": "See {IERC20-totalSupply}."
      },
      "transfer(address,uint256)": {
        "details": "See {IERC20-transfer}. Requirements: - `recipient` cannot be the zero address. - the caller must have a balance of at least `amount`."
      },
      "transferFrom(address,address,uint256)": {
        "details": "See {IERC20-transferFrom}. Emits an {Approval} event indicating the updated allowance. This is not required by the EIP. See the note at the beginning of {ERC20}. Requirements: - `sender` and `recipient` cannot be the zero address. - `sender` must have a balance of at least `amount`. - the caller must have allowance for ``sender``'s tokens of at least `amount`."
      },
      "transferOwnership(address)": {
        "details": "Transfers ownership of the contract to a new account (`newOwner`). Can only be called by the current owner."
      }
    },
    "version": 1
  },
  "userdoc": {
    "kind": "user",
    "methods": {},
    "version": 1
  }
}