{
  "contractName": "PartyJacuzzi",
  "abi": [
    {
      "inputs": [
        {
          "internalType": "contract PartyToken",
          "name": "_party",
          "type": "address"
        }
      ],
      "stateMutability": "nonpayable",
      "type": "constructor"
    },
    {
      "anonymous": false,
      "inputs": [
        {
          "indexed": true,
          "internalType": "address",
          "name": "owner",
          "type": "address"
        },
        {
          "indexed": true,
          "internalType": "address",
          "name": "spender",
          "type": "address"
        },
        {
          "indexed": false,
          "internalType": "uint256",
          "name": "value",
          "type": "uint256"
        }
      ],
      "name": "Approval",
      "type": "event"
    },
    {
      "anonymous": false,
      "inputs": [
        {
          "indexed": true,
          "internalType": "address",
          "name": "previousOwner",
          "type": "address"
        },
        {
          "indexed": true,
          "internalType": "address",
          "name": "newOwner",
          "type": "address"
        }
      ],
      "name": "OwnershipTransferred",
      "type": "event"
    },
    {
      "anonymous": false,
      "inputs": [
        {
          "indexed": true,
          "internalType": "address",
          "name": "from",
          "type": "address"
        },
        {
          "indexed": true,
          "internalType": "address",
          "name": "to",
          "type": "address"
        },
        {
          "indexed": false,
          "internalType": "uint256",
          "name": "value",
          "type": "uint256"
        }
      ],
      "name": "Transfer",
      "type": "event"
    },
    {
      "inputs": [],
      "name": "LOCK_PERIOD",
      "outputs": [
        {
          "internalType": "uint256",
          "name": "",
          "type": "uint256"
        }
      ],
      "stateMutability": "view",
      "type": "function",
      "constant": true
    },
    {
      "inputs": [],
      "name": "MAX_EARLY_WITHDRAW_FEE_PERCENTAGE_BASE",
      "outputs": [
        {
          "internalType": "uint256",
          "name": "",
          "type": "uint256"
        }
      ],
      "stateMutability": "view",
      "type": "function",
      "constant": true
    },
    {
      "inputs": [
        {
          "internalType": "address",
          "name": "owner",
          "type": "address"
        },
        {
          "internalType": "address",
          "name": "spender",
          "type": "address"
        }
      ],
      "name": "allowance",
      "outputs": [
        {
          "internalType": "uint256",
          "name": "",
          "type": "uint256"
        }
      ],
      "stateMutability": "view",
      "type": "function",
      "constant": true
    },
    {
      "inputs": [
        {
          "internalType": "address",
          "name": "spender",
          "type": "address"
        },
        {
          "internalType": "uint256",
          "name": "amount",
          "type": "uint256"
        }
      ],
      "name": "approve",
      "outputs": [
        {
          "internalType": "bool",
          "name": "",
          "type": "bool"
        }
      ],
      "stateMutability": "nonpayable",
      "type": "function"
    },
    {
      "inputs": [
        {
          "internalType": "address",
          "name": "account",
          "type": "address"
        }
      ],
      "name": "balanceOf",
      "outputs": [
        {
          "internalType": "uint256",
          "name": "",
          "type": "uint256"
        }
      ],
      "stateMutability": "view",
      "type": "function",
      "constant": true
    },
    {
      "inputs": [],
      "name": "decimals",
      "outputs": [
        {
          "internalType": "uint8",
          "name": "",
          "type": "uint8"
        }
      ],
      "stateMutability": "view",
      "type": "function",
      "constant": true
    },
    {
      "inputs": [
        {
          "internalType": "address",
          "name": "spender",
          "type": "address"
        },
        {
          "internalType": "uint256",
          "name": "subtractedValue",
          "type": "uint256"
        }
      ],
      "name": "decreaseAllowance",
      "outputs": [
        {
          "internalType": "bool",
          "name": "",
          "type": "bool"
        }
      ],
      "stateMutability": "nonpayable",
      "type": "function"
    },
    {
      "inputs": [],
      "name": "earlyWithdrawalFeePortionFromPercentageBase",
      "outputs": [
        {
          "internalType": "uint256",
          "name": "",
          "type": "uint256"
        }
      ],
      "stateMutability": "view",
      "type": "function",
      "constant": true
    },
    {
      "inputs": [
        {
          "internalType": "address",
          "name": "spender",
          "type": "address"
        },
        {
          "internalType": "uint256",
          "name": "addedValue",
          "type": "uint256"
        }
      ],
      "name": "increaseAllowance",
      "outputs": [
        {
          "internalType": "bool",
          "name": "",
          "type": "bool"
        }
      ],
      "stateMutability": "nonpayable",
      "type": "function"
    },
    {
      "inputs": [],
      "name": "name",
      "outputs": [
        {
          "internalType": "string",
          "name": "",
          "type": "string"
        }
      ],
      "stateMutability": "view",
      "type": "function",
      "constant": true
    },
    {
      "inputs": [],
      "name": "owner",
      "outputs": [
        {
          "internalType": "address",
          "name": "",
          "type": "address"
        }
      ],
      "stateMutability": "view",
      "type": "function",
      "constant": true
    },
    {
      "inputs": [],
      "name": "party",
      "outputs": [
        {
          "internalType": "contract PartyToken",
          "name": "",
          "type": "address"
        }
      ],
      "stateMutability": "view",
      "type": "function",
      "constant": true
    },
    {
      "inputs": [],
      "name": "renounceOwnership",
      "outputs": [],
      "stateMutability": "nonpayable",
      "type": "function"
    },
    {
      "inputs": [],
      "name": "symbol",
      "outputs": [
        {
          "internalType": "string",
          "name": "",
          "type": "string"
        }
      ],
      "stateMutability": "view",
      "type": "function",
      "constant": true
    },
    {
      "inputs": [],
      "name": "totalSupply",
      "outputs": [
        {
          "internalType": "uint256",
          "name": "",
          "type": "uint256"
        }
      ],
      "stateMutability": "view",
      "type": "function",
      "constant": true
    },
    {
      "inputs": [
        {
          "internalType": "address",
          "name": "recipient",
          "type": "address"
        },
        {
          "internalType": "uint256",
          "name": "amount",
          "type": "uint256"
        }
      ],
      "name": "transfer",
      "outputs": [
        {
          "internalType": "bool",
          "name": "",
          "type": "bool"
        }
      ],
      "stateMutability": "nonpayable",
      "type": "function"
    },
    {
      "inputs": [
        {
          "internalType": "address",
          "name": "sender",
          "type": "address"
        },
        {
          "internalType": "address",
          "name": "recipient",
          "type": "address"
        },
        {
          "internalType": "uint256",
          "name": "amount",
          "type": "uint256"
        }
      ],
      "name": "transferFrom",
      "outputs": [
        {
          "internalType": "bool",
          "name": "",
          "type": "bool"
        }
      ],
      "stateMutability": "nonpayable",
      "type": "function"
    },
    {
      "inputs": [
        {
          "internalType": "address",
          "name": "newOwner",
          "type": "address"
        }
      ],
      "name": "transferOwnership",
      "outputs": [],
      "stateMutability": "nonpayable",
      "type": "function"
    },
    {
      "inputs": [],
      "name": "unlockDate",
      "outputs": [
        {
          "internalType": "uint256",
          "name": "",
          "type": "uint256"
        }
      ],
      "stateMutability": "view",
      "type": "function",
      "constant": true
    },
    {
      "inputs": [
        {
          "internalType": "uint256",
          "name": "_amount",
          "type": "uint256"
        }
      ],
      "name": "enter",
      "outputs": [],
      "stateMutability": "nonpayable",
      "type": "function"
    },
    {
      "inputs": [
        {
          "internalType": "uint256",
          "name": "_share",
          "type": "uint256"
        }
      ],
      "name": "leave",
      "outputs": [],
      "stateMutability": "nonpayable",
      "type": "function"
    },
    {
      "inputs": [
        {
          "internalType": "uint256",
          "name": "_earlyWithdrawalFee",
          "type": "uint256"
        }
      ],
      "name": "setEarlyWithdrawalFee",
      "outputs": [],
      "stateMutability": "nonpayable",
      "type": "function"
    }
  ],
  "bytecode": "0x608060405260056007553480156200001657600080fd5b506040516200177038038062001770833981016040819052620000399162000203565b604080518082018252600c81526b50617274794a6163757a7a6960a01b60208083019182528351808501909452600684526578504152545960d01b9084015281519192916200008b916003916200015d565b508051620000a19060049060208401906200015d565b5050506000620000b66200014460201b60201c565b600580546001600160a01b0319166001600160a01b038316908117909155604051919250906000907f8be0079c531659141344cd1fd0a4f28419497f9722a3daafe3b4186f6b6457e0908290a350600680546001600160a01b0319166001600160a01b0383161790556200013a4262ed4e0062000148602090811b62000ae217901c565b600855506200028e565b3390565b60006200015682846200022c565b9392505050565b8280546200016b9062000251565b90600052602060002090601f0160209004810192826200018f5760008555620001da565b82601f10620001aa57805160ff1916838001178555620001da565b82800160010185558215620001da579182015b82811115620001da578251825591602001919060010190620001bd565b50620001e8929150620001ec565b5090565b5b80821115620001e85760008155600101620001ed565b60006020828403121562000215578081fd5b81516001600160a01b038116811462000156578182fd5b600082198211156200024c57634e487b7160e01b81526011600452602481fd5b500190565b6002810460018216806200026657607f821691505b602082108114156200028857634e487b7160e01b600052602260045260246000fd5b50919050565b6114d2806200029e6000396000f3fe608060405234801561001057600080fd5b50600436106101425760003560e01c806370a08231116100b8578063a457c2d71161007c578063a457c2d71461024a578063a59f3e0c1461025d578063a9059cbb14610270578063dd62ed3e14610283578063f2fde38b14610296578063f826ed2e146102a957610142565b806370a0823114610217578063715018a61461022a5780638cee0441146102325780638da5cb5b1461023a57806395d89b411461024257610142565b806323b872dd1161010a57806323b872dd146101aa578063313ce567146101bd578063354284f2146101d257806339509351146101e757806367dfd4c9146101fa57806369ac57211461020f57610142565b8063037cc47d1461014757806306fdde0314610165578063095ea7b31461017a57806318160ddd1461019a5780631820cabb146101a2575b600080fd5b61014f6102bc565b60405161015c91906113c6565b60405180910390f35b61016d6102c2565b60405161015c9190611012565b61018d610188366004610f3d565b610354565b60405161015c9190611007565b61014f610371565b61014f610377565b61018d6101b8366004610f02565b61037e565b6101c561041e565b60405161015c91906113cf565b6101da610423565b60405161015c9190610fb6565b61018d6101f5366004610f3d565b610432565b61020d610208366004610f86565b610481565b005b61014f6106d9565b61014f610225366004610eb6565b6106df565b61020d6106fe565b61014f610787565b6101da61078c565b61016d61079b565b61018d610258366004610f3d565b6107aa565b61020d61026b366004610f86565b610825565b61018d61027e366004610f3d565b61097d565b61014f610291366004610ed0565b610991565b61020d6102a4366004610eb6565b6109bc565b61020d6102b7366004610f86565b610a7d565b60075481565b6060600380546102d19061144b565b80601f01602080910402602001604051908101604052809291908181526020018280546102fd9061144b565b801561034a5780601f1061031f5761010080835404028352916020019161034a565b820191906000526020600020905b81548152906001019060200180831161032d57829003601f168201915b5050505050905090565b6000610368610361610af5565b8484610af9565b50600192915050565b60025490565b62ed4e0081565b600061038b848484610bad565b6001600160a01b0384166000908152600160205260408120816103ac610af5565b6001600160a01b03166001600160a01b03168152602001908152602001600020549050828110156103f85760405162461bcd60e51b81526004016103ef906111b8565b60405180910390fd5b61041385610404610af5565b61040e8685611434565b610af9565b506001949350505050565b601290565b6006546001600160a01b031681565b600061036861043f610af5565b84846001600061044d610af5565b6001600160a01b03908116825260208083019390935260409182016000908120918b168152925290205461040e91906113dd565b600061048b610371565b6006546040516370a0823160e01b8152919250600091610526918491610520916001600160a01b0316906370a08231906104c9903090600401610fb6565b60206040518083038186803b1580156104e157600080fd5b505afa1580156104f5573d6000803e3d6000fd5b505050506040513d601f19601f820116820180604052508101906105199190610f9e565b8690610cd5565b90610ce1565b90506105323384610ced565b60085442106105c55760065460405163a9059cbb60e01b81526001600160a01b039091169063a9059cbb9061056d9033908590600401610fee565b602060405180830381600087803b15801561058757600080fd5b505af115801561059b573d6000803e3d6000fd5b505050506040513d601f19601f820116820180604052508101906105bf9190610f66565b506106d4565b60006105e1606461052060075485610cd590919063ffffffff16565b6006549091506001600160a01b031663a9059cbb336106008585610dd3565b6040518363ffffffff1660e01b815260040161061d929190610fee565b602060405180830381600087803b15801561063757600080fd5b505af115801561064b573d6000803e3d6000fd5b505050506040513d601f19601f8201168201806040525081019061066f9190610f66565b50600654604051636ebfc96960e11b81526001600160a01b039091169063dd7f92d2906106a09084906004016113c6565b600060405180830381600087803b1580156106ba57600080fd5b505af11580156106ce573d6000803e3d6000fd5b50505050505b505050565b60085481565b6001600160a01b0381166000908152602081905260409020545b919050565b610706610af5565b6001600160a01b031661071761078c565b6001600160a01b03161461073d5760405162461bcd60e51b81526004016103ef90611200565b6005546040516000916001600160a01b0316907f8be0079c531659141344cd1fd0a4f28419497f9722a3daafe3b4186f6b6457e0908390a3600580546001600160a01b0319169055565b606481565b6005546001600160a01b031690565b6060600480546102d19061144b565b600080600160006107b9610af5565b6001600160a01b03908116825260208083019390935260409182016000908120918816815292529020549050828110156108055760405162461bcd60e51b81526004016103ef9061134a565b61081b610810610af5565b8561040e8685611434565b5060019392505050565b6006546040516370a0823160e01b81526000916001600160a01b0316906370a0823190610856903090600401610fb6565b60206040518083038186803b15801561086e57600080fd5b505afa158015610882573d6000803e3d6000fd5b505050506040513d601f19601f820116820180604052508101906108a69190610f9e565b905060006108b2610371565b90508015806108bf575081155b156108d3576108ce3384610ddf565b6108f1565b60006108e3836105208685610cd5565b90506108ef3382610ddf565b505b6006546040516323b872dd60e01b81526001600160a01b03909116906323b872dd9061092590339030908890600401610fca565b602060405180830381600087803b15801561093f57600080fd5b505af1158015610953573d6000803e3d6000fd5b505050506040513d601f19601f820116820180604052508101906109779190610f66565b50505050565b600061036861098a610af5565b8484610bad565b6001600160a01b03918216600090815260016020908152604080832093909416825291909152205490565b6109c4610af5565b6001600160a01b03166109d561078c565b6001600160a01b0316146109fb5760405162461bcd60e51b81526004016103ef90611200565b6001600160a01b038116610a215760405162461bcd60e51b81526004016103ef906110ea565b6005546040516001600160a01b038084169216907f8be0079c531659141344cd1fd0a4f28419497f9722a3daafe3b4186f6b6457e090600090a3600580546001600160a01b0319166001600160a01b0392909216919091179055565b610a85610af5565b6001600160a01b0316610a9661078c565b6001600160a01b031614610abc5760405162461bcd60e51b81526004016103ef90611200565b6064811115610add5760405162461bcd60e51b81526004016103ef90611235565b600755565b6000610aee82846113dd565b9392505050565b3390565b6001600160a01b038316610b1f5760405162461bcd60e51b81526004016103ef90611306565b6001600160a01b038216610b455760405162461bcd60e51b81526004016103ef90611130565b6001600160a01b0380841660008181526001602090815260408083209487168084529490915290819020849055517f8c5be1e5ebec7d5bd14f71427d1e84f3dd0314c0f7b2291e5b200ac8c7c3b92590610ba09085906113c6565b60405180910390a3505050565b6001600160a01b038316610bd35760405162461bcd60e51b81526004016103ef906112c1565b6001600160a01b038216610bf95760405162461bcd60e51b81526004016103ef90611065565b610c048383836106d4565b6001600160a01b03831660009081526020819052604090205481811015610c3d5760405162461bcd60e51b81526004016103ef90611172565b610c478282611434565b6001600160a01b038086166000908152602081905260408082209390935590851681529081208054849290610c7d9084906113dd565b92505081905550826001600160a01b0316846001600160a01b03167fddf252ad1be2c89b69c2b068fc378daa952ba7f163c4a11628f55a4df523b3ef84604051610cc791906113c6565b60405180910390a350505050565b6000610aee8284611415565b6000610aee82846113f5565b6001600160a01b038216610d135760405162461bcd60e51b81526004016103ef90611280565b610d1f826000836106d4565b6001600160a01b03821660009081526020819052604090205481811015610d585760405162461bcd60e51b81526004016103ef906110a8565b610d628282611434565b6001600160a01b03841660009081526020819052604081209190915560028054849290610d90908490611434565b90915550506040516000906001600160a01b038516907fddf252ad1be2c89b69c2b068fc378daa952ba7f163c4a11628f55a4df523b3ef90610ba09086906113c6565b6000610aee8284611434565b6001600160a01b038216610e055760405162461bcd60e51b81526004016103ef9061138f565b610e11600083836106d4565b8060026000828254610e2391906113dd565b90915550506001600160a01b03821660009081526020819052604081208054839290610e509084906113dd565b90915550506040516001600160a01b038316906000907fddf252ad1be2c89b69c2b068fc378daa952ba7f163c4a11628f55a4df523b3ef90610e939085906113c6565b60405180910390a35050565b80356001600160a01b03811681146106f957600080fd5b600060208284031215610ec7578081fd5b610aee82610e9f565b60008060408385031215610ee2578081fd5b610eeb83610e9f565b9150610ef960208401610e9f565b90509250929050565b600080600060608486031215610f16578081fd5b610f1f84610e9f565b9250610f2d60208501610e9f565b9150604084013590509250925092565b60008060408385031215610f4f578182fd5b610f5883610e9f565b946020939093013593505050565b600060208284031215610f77578081fd5b81518015158114610aee578182fd5b600060208284031215610f97578081fd5b5035919050565b600060208284031215610faf578081fd5b5051919050565b6001600160a01b0391909116815260200190565b6001600160a01b039384168152919092166020820152604081019190915260600190565b6001600160a01b03929092168252602082015260400190565b901515815260200190565b6000602080835283518082850152825b8181101561103e57858101830151858201604001528201611022565b8181111561104f5783604083870101525b50601f01601f1916929092016040019392505050565b60208082526023908201527f45524332303a207472616e7366657220746f20746865207a65726f206164647260408201526265737360e81b606082015260800190565b60208082526022908201527f45524332303a206275726e20616d6f756e7420657863656564732062616c616e604082015261636560f01b606082015260800190565b60208082526026908201527f4f776e61626c653a206e6577206f776e657220697320746865207a65726f206160408201526564647265737360d01b606082015260800190565b60208082526022908201527f45524332303a20617070726f766520746f20746865207a65726f206164647265604082015261737360f01b606082015260800190565b60208082526026908201527f45524332303a207472616e7366657220616d6f756e7420657863656564732062604082015265616c616e636560d01b606082015260800190565b60208082526028908201527f45524332303a207472616e7366657220616d6f756e74206578636565647320616040820152676c6c6f77616e636560c01b606082015260800190565b6020808252818101527f4f776e61626c653a2063616c6c6572206973206e6f7420746865206f776e6572604082015260600190565b6020808252602b908201527f43616e27742068617665207769746864726177616c206665652067726561746560408201526a72207468616e203130302560a81b606082015260800190565b60208082526021908201527f45524332303a206275726e2066726f6d20746865207a65726f206164647265736040820152607360f81b606082015260800190565b60208082526025908201527f45524332303a207472616e736665722066726f6d20746865207a65726f206164604082015264647265737360d81b606082015260800190565b60208082526024908201527f45524332303a20617070726f76652066726f6d20746865207a65726f206164646040820152637265737360e01b606082015260800190565b60208082526025908201527f45524332303a2064656372656173656420616c6c6f77616e63652062656c6f77604082015264207a65726f60d81b606082015260800190565b6020808252601f908201527f45524332303a206d696e7420746f20746865207a65726f206164647265737300604082015260600190565b90815260200190565b60ff91909116815260200190565b600082198211156113f0576113f0611486565b500190565b60008261141057634e487b7160e01b81526012600452602481fd5b500490565b600081600019048311821515161561142f5761142f611486565b500290565b60008282101561144657611446611486565b500390565b60028104600182168061145f57607f821691505b6020821081141561148057634e487b7160e01b600052602260045260246000fd5b50919050565b634e487b7160e01b600052601160045260246000fdfea2646970667358221220e54987854ddefcb881dd28ad432ea6ffe84ea055fde06aacc022199c4f1959f664736f6c63430008000033",
  "immutableReferences": {},
  "source": "import \"@openzeppelin/contracts/utils/math/SafeMath.sol\";\nimport \"@openzeppelin/contracts/token/ERC20/ERC20.sol\";\nimport \"@openzeppelin/contracts/access/Ownable.sol\";\nimport \"yay-token/contracts/PartyToken.sol\";\n\npragma solidity >=0.6.12;\n\n// PartyJacuzzi is the coolest bar in town. You come in with some PARTY, and leave\n// with more! The longer you stay, the more PARTY you get.\n//\n// This contract handles swapping to and from xPARTY, PartFinance's staking token.\ncontract PartyJacuzzi is ERC20(\"PartyJacuzzi\", \"xPARTY\"), Ownable {\n    using SafeMath for uint256;\n    PartyToken public party;\n\n    uint256 public constant MAX_EARLY_WITHDRAW_FEE_PERCENTAGE_BASE = 100;\n    // This is a variable that can be changed by the owner\n    uint256 public earlyWithdrawalFeePortionFromPercentageBase = 5;\n\n    // Start time of when this contract was created\n    uint256 public unlockDate;\n    uint256 public constant LOCK_PERIOD = 180 days;\n\n    // Make sure that the PartyToken contract we are passing in here\n    // has the function `burnOwnTokens` which will burn tokens of your own\n    // address.\n    constructor(PartyToken _party) public {\n        party = _party;\n        unlockDate = block.timestamp.add(LOCK_PERIOD);\n    }\n\n    // Enter the bar. Pay some PARTY. Earn some shares.\n    // Locks PARTY and mints xPARTY\n    function enter(uint256 _amount) public {\n        // Gets the amount of PARTY locked in the contract\n        uint256 totalParty = party.balanceOf(address(this));\n        // Gets the amount of xPARTY in existence\n        uint256 totalShares = totalSupply();\n        // If no xPARTY exists, mint it 1:1 to the amount put in\n        if (totalShares == 0 || totalParty == 0) {\n            _mint(msg.sender, _amount);\n        }\n        // Calculate and mint the amount of xPARTY the PARTY is worth.\n        // The ratio will change overtime, as xPARTY is burned/minted and PARTY\n        // deposited + gained from fees / withdrawn.\n        else {\n            uint256 what = _amount.mul(totalShares).div(totalParty);\n            _mint(msg.sender, what);\n        }\n        // Lock the PARTY in the contract\n        party.transferFrom(msg.sender, address(this), _amount);\n    }\n\n    // Leave the bar. Claim back your PARTY.\n    // Unclocks the staked + gained PARTY and burns xPARTY\n    function leave(uint256 _share) public {\n        // Gets the amount of xPARTY in existence\n        uint256 totalShares = totalSupply();\n        // Calculates the amount of PARTY the xPARTY is worth\n        uint256 what = _share.mul(party.balanceOf(address(this))).div(\n            totalShares\n        );\n        _burn(msg.sender, _share);\n        if (block.timestamp >= unlockDate) {\n            party.transfer(msg.sender, what);\n        } else {\n            uint256 toBurn = what\n                .mul(earlyWithdrawalFeePortionFromPercentageBase)\n                .div(MAX_EARLY_WITHDRAW_FEE_PERCENTAGE_BASE);\n            // Send the person's PARTY to their address\n            party.transfer(msg.sender, what.sub(toBurn));\n            // BURN the PARTY in this address\n            party.burnOwnTokens(toBurn);\n        }\n    }\n\n    // Change the early withdrawal amount\n    function setEarlyWithdrawalFee(uint256 _earlyWithdrawalFee)\n        external\n        onlyOwner\n    {\n        require(\n            _earlyWithdrawalFee <= MAX_EARLY_WITHDRAW_FEE_PERCENTAGE_BASE,\n            \"Can't have withdrawal fee greater than 100%\"\n        );\n        earlyWithdrawalFeePortionFromPercentageBase = _earlyWithdrawalFee;\n    }\n}\n",
  "sourcePath": "/home/pedro/Documents/projects/avalabs/pefi/penguin-contracts-deployed/contracts/PartyJacuzzi.sol",
  "compiler": {
    "name": "solc",
    "version": "0.8.0+commit.c7dfd78e.Emscripten.clang"
  },
  "schemaVersion": "3.4.1",
  "updatedAt": "2021-10-11T02:23:10.443Z",
  "networkType": "ethereum",
  "devdoc": {
    "kind": "dev",
    "methods": {
      "allowance(address,address)": {
        "details": "See {IERC20-allowance}."
      },
      "approve(address,uint256)": {
        "details": "See {IERC20-approve}. Requirements: - `spender` cannot be the zero address."
      },
      "balanceOf(address)": {
        "details": "See {IERC20-balanceOf}."
      },
      "decimals()": {
        "details": "Returns the number of decimals used to get its user representation. For example, if `decimals` equals `2`, a balance of `505` tokens should be displayed to a user as `5,05` (`505 / 10 ** 2`). Tokens usually opt for a value of 18, imitating the relationship between Ether and Wei. This is the value {ERC20} uses, unless this function is overridden; NOTE: This information is only used for _display_ purposes: it in no way affects any of the arithmetic of the contract, including {IERC20-balanceOf} and {IERC20-transfer}."
      },
      "decreaseAllowance(address,uint256)": {
        "details": "Atomically decreases the allowance granted to `spender` by the caller. This is an alternative to {approve} that can be used as a mitigation for problems described in {IERC20-approve}. Emits an {Approval} event indicating the updated allowance. Requirements: - `spender` cannot be the zero address. - `spender` must have allowance for the caller of at least `subtractedValue`."
      },
      "increaseAllowance(address,uint256)": {
        "details": "Atomically increases the allowance granted to `spender` by the caller. This is an alternative to {approve} that can be used as a mitigation for problems described in {IERC20-approve}. Emits an {Approval} event indicating the updated allowance. Requirements: - `spender` cannot be the zero address."
      },
      "name()": {
        "details": "Returns the name of the token."
      },
      "owner()": {
        "details": "Returns the address of the current owner."
      },
      "renounceOwnership()": {
        "details": "Leaves the contract without owner. It will not be possible to call `onlyOwner` functions anymore. Can only be called by the current owner. NOTE: Renouncing ownership will leave the contract without an owner, thereby removing any functionality that is only available to the owner."
      },
      "symbol()": {
        "details": "Returns the symbol of the token, usually a shorter version of the name."
      },
      "totalSupply()": {
        "details": "See {IERC20-totalSupply}."
      },
      "transfer(address,uint256)": {
        "details": "See {IERC20-transfer}. Requirements: - `recipient` cannot be the zero address. - the caller must have a balance of at least `amount`."
      },
      "transferFrom(address,address,uint256)": {
        "details": "See {IERC20-transferFrom}. Emits an {Approval} event indicating the updated allowance. This is not required by the EIP. See the note at the beginning of {ERC20}. Requirements: - `sender` and `recipient` cannot be the zero address. - `sender` must have a balance of at least `amount`. - the caller must have allowance for ``sender``'s tokens of at least `amount`."
      },
      "transferOwnership(address)": {
        "details": "Transfers ownership of the contract to a new account (`newOwner`). Can only be called by the current owner."
      }
    },
    "version": 1
  },
  "userdoc": {
    "kind": "user",
    "methods": {},
    "version": 1
  }
}