{
  "contractName": "YAYToken",
  "abi": [
    {
      "inputs": [
        {
          "internalType": "address",
          "name": "initialTotalSupplyHolder",
          "type": "address"
        }
      ],
      "stateMutability": "nonpayable",
      "type": "constructor"
    },
    {
      "anonymous": false,
      "inputs": [
        {
          "indexed": true,
          "internalType": "address",
          "name": "owner",
          "type": "address"
        },
        {
          "indexed": true,
          "internalType": "address",
          "name": "spender",
          "type": "address"
        },
        {
          "indexed": false,
          "internalType": "uint256",
          "name": "value",
          "type": "uint256"
        }
      ],
      "name": "Approval",
      "type": "event"
    },
    {
      "anonymous": false,
      "inputs": [
        {
          "indexed": true,
          "internalType": "address",
          "name": "previousOwner",
          "type": "address"
        },
        {
          "indexed": true,
          "internalType": "address",
          "name": "newOwner",
          "type": "address"
        }
      ],
      "name": "OwnershipTransferred",
      "type": "event"
    },
    {
      "anonymous": false,
      "inputs": [
        {
          "indexed": true,
          "internalType": "address",
          "name": "from",
          "type": "address"
        },
        {
          "indexed": true,
          "internalType": "address",
          "name": "to",
          "type": "address"
        },
        {
          "indexed": false,
          "internalType": "uint256",
          "name": "value",
          "type": "uint256"
        }
      ],
      "name": "Transfer",
      "type": "event"
    },
    {
      "inputs": [],
      "name": "DOMAIN_SEPARATOR",
      "outputs": [
        {
          "internalType": "bytes32",
          "name": "",
          "type": "bytes32"
        }
      ],
      "stateMutability": "view",
      "type": "function"
    },
    {
      "inputs": [],
      "name": "PERMIT_TYPEHASH",
      "outputs": [
        {
          "internalType": "bytes32",
          "name": "",
          "type": "bytes32"
        }
      ],
      "stateMutability": "view",
      "type": "function"
    },
    {
      "inputs": [
        {
          "internalType": "address",
          "name": "owner",
          "type": "address"
        },
        {
          "internalType": "address",
          "name": "spender",
          "type": "address"
        }
      ],
      "name": "allowance",
      "outputs": [
        {
          "internalType": "uint256",
          "name": "",
          "type": "uint256"
        }
      ],
      "stateMutability": "view",
      "type": "function"
    },
    {
      "inputs": [
        {
          "internalType": "address",
          "name": "spender",
          "type": "address"
        },
        {
          "internalType": "uint256",
          "name": "amount",
          "type": "uint256"
        }
      ],
      "name": "approve",
      "outputs": [
        {
          "internalType": "bool",
          "name": "",
          "type": "bool"
        }
      ],
      "stateMutability": "nonpayable",
      "type": "function"
    },
    {
      "inputs": [
        {
          "internalType": "address",
          "name": "account",
          "type": "address"
        }
      ],
      "name": "balanceOf",
      "outputs": [
        {
          "internalType": "uint256",
          "name": "",
          "type": "uint256"
        }
      ],
      "stateMutability": "view",
      "type": "function"
    },
    {
      "inputs": [
        {
          "internalType": "address",
          "name": "spender",
          "type": "address"
        },
        {
          "internalType": "uint256",
          "name": "subtractedValue",
          "type": "uint256"
        }
      ],
      "name": "decreaseAllowance",
      "outputs": [
        {
          "internalType": "bool",
          "name": "",
          "type": "bool"
        }
      ],
      "stateMutability": "nonpayable",
      "type": "function"
    },
    {
      "inputs": [
        {
          "internalType": "address",
          "name": "spender",
          "type": "address"
        },
        {
          "internalType": "uint256",
          "name": "addedValue",
          "type": "uint256"
        }
      ],
      "name": "increaseAllowance",
      "outputs": [
        {
          "internalType": "bool",
          "name": "",
          "type": "bool"
        }
      ],
      "stateMutability": "nonpayable",
      "type": "function"
    },
    {
      "inputs": [],
      "name": "initialSupply",
      "outputs": [
        {
          "internalType": "uint256",
          "name": "",
          "type": "uint256"
        }
      ],
      "stateMutability": "view",
      "type": "function"
    },
    {
      "inputs": [],
      "name": "name",
      "outputs": [
        {
          "internalType": "string",
          "name": "",
          "type": "string"
        }
      ],
      "stateMutability": "view",
      "type": "function"
    },
    {
      "inputs": [
        {
          "internalType": "address",
          "name": "",
          "type": "address"
        }
      ],
      "name": "nonces",
      "outputs": [
        {
          "internalType": "uint256",
          "name": "",
          "type": "uint256"
        }
      ],
      "stateMutability": "view",
      "type": "function"
    },
    {
      "inputs": [],
      "name": "owner",
      "outputs": [
        {
          "internalType": "address",
          "name": "",
          "type": "address"
        }
      ],
      "stateMutability": "view",
      "type": "function"
    },
    {
      "inputs": [],
      "name": "renounceOwnership",
      "outputs": [],
      "stateMutability": "nonpayable",
      "type": "function"
    },
    {
      "inputs": [],
      "name": "symbol",
      "outputs": [
        {
          "internalType": "string",
          "name": "",
          "type": "string"
        }
      ],
      "stateMutability": "view",
      "type": "function"
    },
    {
      "inputs": [],
      "name": "totalSupply",
      "outputs": [
        {
          "internalType": "uint256",
          "name": "",
          "type": "uint256"
        }
      ],
      "stateMutability": "view",
      "type": "function"
    },
    {
      "inputs": [
        {
          "internalType": "address",
          "name": "recipient",
          "type": "address"
        },
        {
          "internalType": "uint256",
          "name": "amount",
          "type": "uint256"
        }
      ],
      "name": "transfer",
      "outputs": [
        {
          "internalType": "bool",
          "name": "",
          "type": "bool"
        }
      ],
      "stateMutability": "nonpayable",
      "type": "function"
    },
    {
      "inputs": [
        {
          "internalType": "address",
          "name": "sender",
          "type": "address"
        },
        {
          "internalType": "address",
          "name": "recipient",
          "type": "address"
        },
        {
          "internalType": "uint256",
          "name": "amount",
          "type": "uint256"
        }
      ],
      "name": "transferFrom",
      "outputs": [
        {
          "internalType": "bool",
          "name": "",
          "type": "bool"
        }
      ],
      "stateMutability": "nonpayable",
      "type": "function"
    },
    {
      "inputs": [
        {
          "internalType": "address",
          "name": "newOwner",
          "type": "address"
        }
      ],
      "name": "transferOwnership",
      "outputs": [],
      "stateMutability": "nonpayable",
      "type": "function"
    },
    {
      "inputs": [],
      "name": "decimals",
      "outputs": [
        {
          "internalType": "uint8",
          "name": "",
          "type": "uint8"
        }
      ],
      "stateMutability": "view",
      "type": "function"
    },
    {
      "inputs": [
        {
          "internalType": "uint256",
          "name": "_amount",
          "type": "uint256"
        }
      ],
      "name": "burnOwnTokens",
      "outputs": [],
      "stateMutability": "nonpayable",
      "type": "function"
    },
    {
      "inputs": [
        {
          "internalType": "address",
          "name": "owner",
          "type": "address"
        },
        {
          "internalType": "address",
          "name": "spender",
          "type": "address"
        },
        {
          "internalType": "uint256",
          "name": "value",
          "type": "uint256"
        },
        {
          "internalType": "uint256",
          "name": "deadline",
          "type": "uint256"
        },
        {
          "internalType": "uint8",
          "name": "v",
          "type": "uint8"
        },
        {
          "internalType": "bytes32",
          "name": "r",
          "type": "bytes32"
        },
        {
          "internalType": "bytes32",
          "name": "s",
          "type": "bytes32"
        }
      ],
      "name": "permit",
      "outputs": [],
      "stateMutability": "nonpayable",
      "type": "function"
    }
  ],
  "bytecode": "0x60806040523480156200001157600080fd5b5060405162001649380380620016498339810160408190526200003491620003cd565b604080518082018252600a815269282aa82a902a37b5b2b760b11b6020808301918252835180850190945260048452635055505560e01b908401528151919291620000829160039162000327565b5080516200009890600490602084019062000327565b5050506000620000ad620001b060201b60201c565b600580546001600160a01b0319166001600160a01b038316908117909155604051919250906000907f8be0079c531659141344cd1fd0a4f28419497f9722a3daafe3b4186f6b6457e0908290a350467f8b73c3c69bb8fe3d512ecc4cf759cc79239f7b179b0ffacaa9a75d522b39400f62000127620001b4565b805160209182012060408051808201825260018152603160f81b90840152516200017993927fc89efdaa54c0f20c7adf612882df0950f5a951637e0307cdcb4c672f298b8bc6918691309101620003fd565b60408051601f198184030181529190528051602090910120600655620001a882670f43fc2c04ee00006200024e565b5050620004cb565b3390565b606060038054620001c5906200048e565b80601f0160208091040260200160405190810160405280929190818152602001828054620001f3906200048e565b8015620002445780601f10620002185761010080835404028352916020019162000244565b820191906000526020600020905b8154815290600101906020018083116200022657829003601f168201915b5050505050905090565b6001600160a01b038216620002805760405162461bcd60e51b8152600401620002779062000429565b60405180910390fd5b6200028e6000838362000322565b8060026000828254620002a2919062000469565b90915550506001600160a01b03821660009081526020819052604081208054839290620002d190849062000469565b90915550506040516001600160a01b038316906000907fddf252ad1be2c89b69c2b068fc378daa952ba7f163c4a11628f55a4df523b3ef906200031690859062000460565b60405180910390a35050565b505050565b82805462000335906200048e565b90600052602060002090601f016020900481019282620003595760008555620003a4565b82601f106200037457805160ff1916838001178555620003a4565b82800160010185558215620003a4579182015b82811115620003a457825182559160200191906001019062000387565b50620003b2929150620003b6565b5090565b5b80821115620003b25760008155600101620003b7565b600060208284031215620003df578081fd5b81516001600160a01b0381168114620003f6578182fd5b9392505050565b9485526020850193909352604084019190915260608301526001600160a01b0316608082015260a00190565b6020808252601f908201527f45524332303a206d696e7420746f20746865207a65726f206164647265737300604082015260600190565b90815260200190565b600082198211156200048957634e487b7160e01b81526011600452602481fd5b500190565b600281046001821680620004a357607f821691505b60208210811415620004c557634e487b7160e01b600052602260045260246000fd5b50919050565b61116e80620004db6000396000f3fe608060405234801561001057600080fd5b506004361061012c5760003560e01c8063715018a6116100ad578063a9059cbb11610071578063a9059cbb14610237578063d505accf1461024a578063dd62ed3e1461025d578063dd7f92d214610270578063f2fde38b146102835761012c565b8063715018a6146101ea5780637ecebe00146101f45780638da5cb5b1461020757806395d89b411461021c578063a457c2d7146102245761012c565b8063313ce567116100f4578063313ce5671461019f5780633644e515146101b4578063378dc3dc146101bc57806339509351146101c457806370a08231146101d75761012c565b806306fdde0314610131578063095ea7b31461014f57806318160ddd1461016f57806323b872dd1461018457806330adf81f14610197575b600080fd5b610139610296565b6040516101469190610d07565b60405180910390f35b61016261015d366004610c31565b610328565b6040516101469190610ca1565b610177610345565b6040516101469190610cac565b610162610192366004610b85565b61034b565b6101776103eb565b6101a761040f565b604051610146919061108f565b610177610414565b61017761041a565b6101626101d2366004610c31565b610426565b6101776101e5366004610b32565b610475565b6101f2610494565b005b610177610202366004610b32565b61051d565b61020f61052f565b6040516101469190610c8d565b61013961053e565b610162610232366004610c31565b61054d565b610162610245366004610c31565b6105c8565b6101f2610258366004610bc0565b6105dc565b61017761026b366004610b53565b610757565b6101f261027e366004610c5a565b610782565b6101f2610291366004610b32565b61078f565b6060600380546102a5906110cc565b80601f01602080910402602001604051908101604052809291908181526020018280546102d1906110cc565b801561031e5780601f106102f35761010080835404028352916020019161031e565b820191906000526020600020905b81548152906001019060200180831161030157829003601f168201915b5050505050905090565b600061033c610335610850565b8484610854565b50600192915050565b60025490565b6000610358848484610908565b6001600160a01b038416600090815260016020526040812081610379610850565b6001600160a01b03166001600160a01b03168152602001908152602001600020549050828110156103c55760405162461bcd60e51b81526004016103bc90610edd565b60405180910390fd5b6103e0856103d1610850565b6103db86856110b5565b610854565b506001949350505050565b7f6e71edae12b1b97f4d1f60370fef10105fa2faae0126114a169c64845d6126c981565b600a90565b60065481565b670f43fc2c04ee000081565b600061033c610433610850565b848460016000610441610850565b6001600160a01b03908116825260208083019390935260409182016000908120918b16815292529020546103db919061109d565b6001600160a01b0381166000908152602081905260409020545b919050565b61049c610850565b6001600160a01b03166104ad61052f565b6001600160a01b0316146104d35760405162461bcd60e51b81526004016103bc90610f25565b6005546040516000916001600160a01b0316907f8be0079c531659141344cd1fd0a4f28419497f9722a3daafe3b4186f6b6457e0908390a3600580546001600160a01b0319169055565b60076020526000908152604090205481565b6005546001600160a01b031690565b6060600480546102a5906110cc565b6000806001600061055c610850565b6001600160a01b03908116825260208083019390935260409182016000908120918816815292529020549050828110156105a85760405162461bcd60e51b81526004016103bc9061104a565b6105be6105b3610850565b856103db86856110b5565b5060019392505050565b600061033c6105d5610850565b8484610908565b428410156105fc5760405162461bcd60e51b81526004016103bc90610fe0565b6006546001600160a01b038816600090815260076020526040812080549192917f6e71edae12b1b97f4d1f60370fef10105fa2faae0126114a169c64845d6126c9918b918b918b91908761064f83611107565b919050558a60405160200161066996959493929190610cb5565b60405160208183030381529060405280519060200120604051602001610690929190610c72565b6040516020818303038152906040528051906020012090506000600182868686604051600081526020016040526040516106cd9493929190610ce9565b6020604051602081039080840390855afa1580156106ef573d6000803e3d6000fd5b5050604051601f1901519150506001600160a01b038116158015906107255750886001600160a01b0316816001600160a01b0316145b6107415760405162461bcd60e51b81526004016103bc90610d5a565b61074c898989610854565b505050505050505050565b6001600160a01b03918216600090815260016020908152604080832093909416825291909152205490565b61078c3382610a30565b50565b610797610850565b6001600160a01b03166107a861052f565b6001600160a01b0316146107ce5760405162461bcd60e51b81526004016103bc90610f25565b6001600160a01b0381166107f45760405162461bcd60e51b81526004016103bc90610e0f565b6005546040516001600160a01b038084169216907f8be0079c531659141344cd1fd0a4f28419497f9722a3daafe3b4186f6b6457e090600090a3600580546001600160a01b0319166001600160a01b0392909216919091179055565b3390565b6001600160a01b03831661087a5760405162461bcd60e51b81526004016103bc90611006565b6001600160a01b0382166108a05760405162461bcd60e51b81526004016103bc90610e55565b6001600160a01b0380841660008181526001602090815260408083209487168084529490915290819020849055517f8c5be1e5ebec7d5bd14f71427d1e84f3dd0314c0f7b2291e5b200ac8c7c3b925906108fb908590610cac565b60405180910390a3505050565b6001600160a01b03831661092e5760405162461bcd60e51b81526004016103bc90610f9b565b6001600160a01b0382166109545760405162461bcd60e51b81526004016103bc90610d8a565b61095f838383610b16565b6001600160a01b038316600090815260208190526040902054818110156109985760405162461bcd60e51b81526004016103bc90610e97565b6109a282826110b5565b6001600160a01b0380861660009081526020819052604080822093909355908516815290812080548492906109d890849061109d565b92505081905550826001600160a01b0316846001600160a01b03167fddf252ad1be2c89b69c2b068fc378daa952ba7f163c4a11628f55a4df523b3ef84604051610a229190610cac565b60405180910390a350505050565b6001600160a01b038216610a565760405162461bcd60e51b81526004016103bc90610f5a565b610a6282600083610b16565b6001600160a01b03821660009081526020819052604090205481811015610a9b5760405162461bcd60e51b81526004016103bc90610dcd565b610aa582826110b5565b6001600160a01b03841660009081526020819052604081209190915560028054849290610ad39084906110b5565b90915550506040516000906001600160a01b038516907fddf252ad1be2c89b69c2b068fc378daa952ba7f163c4a11628f55a4df523b3ef906108fb908690610cac565b505050565b80356001600160a01b038116811461048f57600080fd5b600060208284031215610b43578081fd5b610b4c82610b1b565b9392505050565b60008060408385031215610b65578081fd5b610b6e83610b1b565b9150610b7c60208401610b1b565b90509250929050565b600080600060608486031215610b99578081fd5b610ba284610b1b565b9250610bb060208501610b1b565b9150604084013590509250925092565b600080600080600080600060e0888a031215610bda578283fd5b610be388610b1b565b9650610bf160208901610b1b565b95506040880135945060608801359350608088013560ff81168114610c14578384fd5b9699959850939692959460a0840135945060c09093013592915050565b60008060408385031215610c43578182fd5b610c4c83610b1b565b946020939093013593505050565b600060208284031215610c6b578081fd5b5035919050565b61190160f01b81526002810192909252602282015260420190565b6001600160a01b0391909116815260200190565b901515815260200190565b90815260200190565b9586526001600160a01b0394851660208701529290931660408501526060840152608083019190915260a082015260c00190565b93845260ff9290921660208401526040830152606082015260800190565b6000602080835283518082850152825b81811015610d3357858101830151858201604001528201610d17565b81811115610d445783604083870101525b50601f01601f1916929092016040019392505050565b6020808252601690820152755941593a20494e56414c49445f5349474e415455524560501b604082015260600190565b60208082526023908201527f45524332303a207472616e7366657220746f20746865207a65726f206164647260408201526265737360e81b606082015260800190565b60208082526022908201527f45524332303a206275726e20616d6f756e7420657863656564732062616c616e604082015261636560f01b606082015260800190565b60208082526026908201527f4f776e61626c653a206e6577206f776e657220697320746865207a65726f206160408201526564647265737360d01b606082015260800190565b60208082526022908201527f45524332303a20617070726f766520746f20746865207a65726f206164647265604082015261737360f01b606082015260800190565b60208082526026908201527f45524332303a207472616e7366657220616d6f756e7420657863656564732062604082015265616c616e636560d01b606082015260800190565b60208082526028908201527f45524332303a207472616e7366657220616d6f756e74206578636565647320616040820152676c6c6f77616e636560c01b606082015260800190565b6020808252818101527f4f776e61626c653a2063616c6c6572206973206e6f7420746865206f776e6572604082015260600190565b60208082526021908201527f45524332303a206275726e2066726f6d20746865207a65726f206164647265736040820152607360f81b606082015260800190565b60208082526025908201527f45524332303a207472616e736665722066726f6d20746865207a65726f206164604082015264647265737360d81b606082015260800190565b6020808252600c908201526b1650564e881156141254915160a21b604082015260600190565b60208082526024908201527f45524332303a20617070726f76652066726f6d20746865207a65726f206164646040820152637265737360e01b606082015260800190565b60208082526025908201527f45524332303a2064656372656173656420616c6c6f77616e63652062656c6f77604082015264207a65726f60d81b606082015260800190565b60ff91909116815260200190565b600082198211156110b0576110b0611122565b500190565b6000828210156110c7576110c7611122565b500390565b6002810460018216806110e057607f821691505b6020821081141561110157634e487b7160e01b600052602260045260246000fd5b50919050565b600060001982141561111b5761111b611122565b5060010190565b634e487b7160e01b600052601160045260246000fdfea2646970667358221220af39043f12161bfa0f33305beef71bdfb36662357590184b85e6a46efe2a717864736f6c63430008000033",
  "immutableReferences": {},
  "source": "import \"@openzeppelin/contracts/utils/math/SafeMath.sol\";\nimport \"@openzeppelin/contracts/token/ERC20/ERC20.sol\";\nimport \"@openzeppelin/contracts/access/Ownable.sol\";\n\npragma solidity >=0.6.12;\n\n// YAYToken with Governance.\ncontract YAYToken is ERC20(\"PUPU Token\", \"PUPU\"), Ownable {\n    using SafeMath for uint256;\n\n    uint256 public constant initialSupply = 1100000000000000000;\n\n    bytes32 public DOMAIN_SEPARATOR;\n    // keccak256(\"Permit(address owner,address spender,uint256 value,uint256 nonce,uint256 deadline)\");\n    bytes32 public constant PERMIT_TYPEHASH =\n        0x6e71edae12b1b97f4d1f60370fef10105fa2faae0126114a169c64845d6126c9;\n    mapping(address => uint256) public nonces;\n\n    constructor(address initialTotalSupplyHolder) public {\n        uint256 chainId;\n        assembly {\n            chainId := chainid()\n        }\n        DOMAIN_SEPARATOR = keccak256(\n            abi.encode(\n                keccak256(\n                    \"EIP712Domain(string name,string version,uint256 chainId,address verifyingContract)\"\n                ),\n                keccak256(bytes(name())),\n                keccak256(bytes(\"1\")),\n                chainId,\n                address(this)\n            )\n        );\n        _mint(initialTotalSupplyHolder, initialSupply);\n    }\n\n    function decimals() public view virtual override returns (uint8) {\n        return 10;\n    }\n\n    // Burns the callers tokens\n    function burnOwnTokens(uint256 _amount) external {\n        _burn(msg.sender, _amount);\n    }\n\n    function permit(\n        address owner,\n        address spender,\n        uint256 value,\n        uint256 deadline,\n        uint8 v,\n        bytes32 r,\n        bytes32 s\n    ) external {\n        require(deadline >= block.timestamp, \"YAY: EXPIRED\");\n        bytes32 digest = keccak256(\n            abi.encodePacked(\n                \"\\x19\\x01\",\n                DOMAIN_SEPARATOR,\n                keccak256(\n                    abi.encode(\n                        PERMIT_TYPEHASH,\n                        owner,\n                        spender,\n                        value,\n                        nonces[owner]++,\n                        deadline\n                    )\n                )\n            )\n        );\n        address recoveredAddress = ecrecover(digest, v, r, s);\n        require(\n            recoveredAddress != address(0) && recoveredAddress == owner,\n            \"YAY: INVALID_SIGNATURE\"\n        );\n        _approve(owner, spender, value);\n    }\n}\n",
  "sourcePath": "/home/pedro/Documents/projects/avalabs/pefi/penguin-contracts-deployed/contracts/YAYToken.sol",
  "compiler": {
    "name": "solc",
    "version": "0.8.0+commit.c7dfd78e.Emscripten.clang"
  },
  "schemaVersion": "3.4.1",
  "updatedAt": "2021-07-03T22:42:48.281Z",
  "devdoc": {
    "kind": "dev",
    "methods": {
      "allowance(address,address)": {
        "details": "See {IERC20-allowance}."
      },
      "approve(address,uint256)": {
        "details": "See {IERC20-approve}. Requirements: - `spender` cannot be the zero address."
      },
      "balanceOf(address)": {
        "details": "See {IERC20-balanceOf}."
      },
      "decimals()": {
        "details": "Returns the number of decimals used to get its user representation. For example, if `decimals` equals `2`, a balance of `505` tokens should be displayed to a user as `5,05` (`505 / 10 ** 2`). Tokens usually opt for a value of 18, imitating the relationship between Ether and Wei. This is the value {ERC20} uses, unless this function is overridden; NOTE: This information is only used for _display_ purposes: it in no way affects any of the arithmetic of the contract, including {IERC20-balanceOf} and {IERC20-transfer}."
      },
      "decreaseAllowance(address,uint256)": {
        "details": "Atomically decreases the allowance granted to `spender` by the caller. This is an alternative to {approve} that can be used as a mitigation for problems described in {IERC20-approve}. Emits an {Approval} event indicating the updated allowance. Requirements: - `spender` cannot be the zero address. - `spender` must have allowance for the caller of at least `subtractedValue`."
      },
      "increaseAllowance(address,uint256)": {
        "details": "Atomically increases the allowance granted to `spender` by the caller. This is an alternative to {approve} that can be used as a mitigation for problems described in {IERC20-approve}. Emits an {Approval} event indicating the updated allowance. Requirements: - `spender` cannot be the zero address."
      },
      "name()": {
        "details": "Returns the name of the token."
      },
      "owner()": {
        "details": "Returns the address of the current owner."
      },
      "renounceOwnership()": {
        "details": "Leaves the contract without owner. It will not be possible to call `onlyOwner` functions anymore. Can only be called by the current owner. NOTE: Renouncing ownership will leave the contract without an owner, thereby removing any functionality that is only available to the owner."
      },
      "symbol()": {
        "details": "Returns the symbol of the token, usually a shorter version of the name."
      },
      "totalSupply()": {
        "details": "See {IERC20-totalSupply}."
      },
      "transfer(address,uint256)": {
        "details": "See {IERC20-transfer}. Requirements: - `recipient` cannot be the zero address. - the caller must have a balance of at least `amount`."
      },
      "transferFrom(address,address,uint256)": {
        "details": "See {IERC20-transferFrom}. Emits an {Approval} event indicating the updated allowance. This is not required by the EIP. See the note at the beginning of {ERC20}. Requirements: - `sender` and `recipient` cannot be the zero address. - `sender` must have a balance of at least `amount`. - the caller must have allowance for ``sender``'s tokens of at least `amount`."
      },
      "transferOwnership(address)": {
        "details": "Transfers ownership of the contract to a new account (`newOwner`). Can only be called by the current owner."
      }
    },
    "version": 1
  },
  "userdoc": {
    "kind": "user",
    "methods": {},
    "version": 1
  }
}